:020000040800F2
:1000000000000220794C0008E94A0008F94A00087B
:10001000014B0008094B0008114B000800000000CC
:10002000000000000000000000000000194B000864
:10003000294B000800000000394B0008494B00081C
:10004000C94C0008C94C0008C94C0008C94C00083C
:10005000C94C0008C94C0008493F0008C94C0008B9
:10006000C94C0008C94C0008C94C0008C94C00081C
:10007000C94C0008C94C0008C94C0008C94C00080C
:10008000C94C0008C94C0008C94C0008C94C0008FC
:10009000C94C0008C94C0008C94C0008C94C0008EC
:1000A000C94C0008C94C0008C94C0008C94C0008DC
:1000B000C94C0008C94C0008C94C0008C94C0008CC
:1000C000C94C0008C94C0008C94C0008C94C0008BC
:1000D000C94C0008C94C0008C94C0008C94C0008AC
:1000E000C94C0008C94C0008C94C0008C94C00089C
:1000F000C94C0008C94C0008C94C0008C94C00088C
:10010000C94C0008C94C0008C94C0008C94C00087B
:10011000C94C0008C94C0008C94C0008C94C00086B
:10012000C94C0008C94C0008C94C0008C94C00085B
:10013000C94C0008C94C0008C94C0008C94C00084B
:10014000C94C0008C94C0008C94C0008C94C00083B
:10015000C94C0008C94C0008C94C0008C94C00082B
:10016000C94C0008C94C0008C94C0008C94C00081B
:10017000C94C0008C94C0008C94C00080000000028
:08018000C94C0008C94C00083D
:1001880010B5054C237833B9044B13B10448AFF3C9
:1001980000800123237010BDFC0100200000000036
:1001A80054670008084B10B51BB108490848AFF35D
:1001B80000800848036803B910BD074B002BFBD02B
:1001C800BDE81040184700BF0000000000020020F2
:1001D80054670008FC0100200000000053B94AB928
:1001E800002908BF00281CBF4FF0FF314FF0FF3037
:1001F80000F07EB9ADF1080C6DE904CE00F006F808
:10020800DDF804E0DDE9022304B070472DE9F0478A
:100218008C460E460446089D002B50D18A4217464C
:100228006CD9B2FA82FEBEF1000F0BD0CEF12004D9
:1002380020FA04F401FA0EF644EA060C02FA0EF764
:1002480000FA0EF44FEA1749220CBCFBF9F01FFA2A
:1002580087F809FB10C642EA064600FB08F3B342DA
:1002680009D9F61900F1FF3280F02281B34240F239
:100278001F8102383E44F61AA2B2B6FBF9F309FB15
:10028800136642EA064403FB08F8A04509D9E419B5
:1002980003F1FF3280F00A81A04540F20781023B5A
:1002A8003C44C8EB040443EA00400021002D62D01E
:1002B80024FA0EF400232C606B60BDE8F0878B42B3
:1002C80007D9002D55D0002185E841000846BDE832
:1002D800F087B3FA83F1002940F09080B34202D34B
:1002E800824200F2F880841A66EB03060120B446C5
:1002F800002D40D085E81010BDE8F08712B901271D
:10030800B7FBF2F7B7FA87FEBEF1000F35D1F31B42
:100318004FEA17481FFA87FC0121B3FBF8F0220CBB
:1003280008FB103642EA06460CFB00F3B34207D935
:10033800F61900F1FF3202D2B34200F2CE80104625
:10034800F61AA2B2B6FBF8F308FB136642EA0644B3
:100358000CFB03FCA44507D9E41903F1FF3202D2D0
:10036800A44500F2B5801346CCEB040443EA0040F0
:100378009CE729462846BDE8F087CEF1200106FA19
:100388000EF307FA0EF720FA01F94FEA1748CE40A4
:1003980049EA0309B6FBF8FA4FEA194408FB1A665A
:1003A8001FFA87FC44EA06430AFB0CF29A4200FA59
:1003B8000EF40AD9DB190AF1FF3180F087809A42DE
:1003C80040F28480AAF1020A3B449B1A1FFA89F979
:1003D800B3FBF8F108FB113349EA034301FB0CF6C0
:1003E8009E4207D9DB1901F1FF326BD29E4269D9CF
:1003F80002393B449B1B41EA0A418EE7C1F1200EBA
:1004080022FA0EF48B40234320FA0EF706FA01F481
:100418004FEA134C26FA0EF63C43B6FBFCF9270CC0
:100428000CFB19661FFA83F847EA064609FB08F72A
:10043800B74202FA01F200FA01FA08D9F61809F1EE
:10044800FF3041D2B7423FD9A9F102091E44F61B39
:10045800A0B2B6FBFCF40CFB146640EA064704FBAA
:1004680008F8B84507D9FF1804F1FF3028D2B84575
:1004780026D9023C1F4444EA0940C8EB0707A0FB01
:1004880002894F4544464E4614D329D065B3BAEB8A
:10049800040367EB060707FA0EFECB40CF404EEA8F
:1004A800030385E888000021BDE8F0871346F8E6D5
:1004B8001046E0E6B8EB020469EB03060138E5E70D
:1004C8000446D8E7114695E78146C0E78A467CE7A7
:1004D800023B3C4448E708460AE702383E442FE717
:1004E800C245E7D33E46D1E72946BDE8F08700BFBD
:1004F800704700BF034613F8012B002AFBD1181AD6
:100508000138704781F0004102E000BF83F00043EA
:1005180030B54FEA41044FEA430594EA050F08BF96
:1005280090EA020F1FBF54EA000C55EA020C7FEA5A
:10053800645C7FEA655C00F0E2804FEA5454D4EBD7
:100548005555B8BF6D420CDD2C4480EA020281EAA1
:10055800030382EA000083EA010180EA020281EAD9
:100568000303362D88BF30BD11F0004F4FEA01312B
:100578004FF4801C4CEA113102D0404261EB41013A
:1005880013F0004F4FEA03334CEA133302D05242C0
:1005980063EB430394EA050F00F0A780A4F101047C
:1005A800D5F1200E0DDB02FA0EFC22FA05F28018B6
:1005B80041F1000103FA0EF2801843FA05F359419C
:1005C8000EE0A5F120050EF1200E012A03FA0EFC1B
:1005D80028BF4CF0020C43FA05F3C01851EBE37145
:1005E80001F0004507D54FF0000EDCF1000C7EEB62
:1005F80000006EEB0101B1F5801F1BD3B1F5001FA0
:100608000CD349085FEA30004FEA3C0C04F10104BE
:100618004FEA445212F5800F80F09A80BCF1004FE7
:1006280008BF5FEA500C50F1000041EB045141EA69
:10063800050130BD5FEA4C0C404141EB010111F46A
:10064800801FA4F10104E9D191F0000F04BF014615
:100658000020B1FA81F308BF2033A3F10B03B3F1F3
:1006680020020CDA0C3208DD02F1140CC2F10C0283
:1006780001FA0CF021FA02F10CE002F11402D8BFE1
:10068800C2F1200C01FA02F120FA0CFCDCBF41EAAD
:100698000C019040E41AA2BF01EB0451294330BD7C
:1006A8006FEA04041F3C1CDA0C340EDC04F1140459
:1006B800C4F1200220FA04F001FA02F340EA030030
:1006C80021FA04F345EA030130BDC4F10C04C4F176
:1006D800200220FA02F001FA04F340EA0300294656
:1006E80030BD21FA04F0294630BD94F0000F83F4A0
:1006F800801306BF81F480110134013D4EE77FEA83
:10070800645C18BF7FEA655C29D094EA050F08BFCE
:1007180090EA020F05D054EA000C04BF19461046AF
:1007280030BD91EA030F1EBF0021002030BD5FEAF3
:10073800545C05D14000494128BF41F0004130BD1B
:1007480014F580043CBF01F5801130BD01F000456F
:1007580045F0FE4141F470014FF0000030BD7FEAE2
:10076800645C1ABF194610467FEA655C1CBF0B46DD
:10077800024650EA013406BF52EA033591EA030FF4
:1007880041F4002130BD00BF90F0000F04BF0021EC
:10079800704730B54FF4806404F132044FF000051F
:1007A8004FF0000150E700BF90F0000F04BF002198
:1007B800704730B54FF4806404F1320410F00045FE
:1007C80048BF40424FF000013EE700BF42004FEAF9
:1007D800E2014FEA31014FEA02701FBF12F07F4376
:1007E80093F07F4F81F06051704792F0000F14BF73
:1007F80093F07F4F704730B54FF4607401F00045B7
:1008080021F0004120E700BF50EA010208BF70470D
:1008180030B54FF000050AE050EA010208BF704702
:1008280030B511F0004502D5404261EB41014FF46B
:10083800806404F132045FEA915C3FF4DCAE4FF06F
:1008480003025FEADC0C18BF03325FEADC0C18BF56
:10085800033202EBDC02C2F1200300FA03FC20FAA7
:1008680002F001FA03FE40EA0E0021FA02F11444F4
:10087800C1E600BF70B54FF0FF0C4CF4E06C1CEA09
:1008880011541DBF1CEA135594EA0C0F95EA0C0F7E
:1008980000F0DEF82C4481EA030621EA4C5123EAF1
:1008A8004C5350EA013518BF52EA033541F4801120
:1008B80043F4801338D0A0FB02CE4FF00005E1FBD3
:1008C80002E506F00042E0FB03E54FF00006E1FB1D
:1008D80003569CF0000F18BF4EF0010EA4F1FF0460
:1008E800B6F5007F64F5407404D25FEA4E0E6D41A0
:1008F80046EB060642EAC62141EA55514FEAC520B1
:1009080040EA5E504FEACE2EB4F1FD0C88BFBCF52C
:10091800E06F1ED8BEF1004F08BF5FEA500E50F1DD
:10092800000041EB045170BD06F0004646EA0101A3
:1009380040EA020081EA0301B4EB5C04C2BFD4EBD5
:100948000C0541EA045170BD41F480114FF0000ECE
:10095800013C00F3AB8014F1360FDEBF002001F03C
:10096800004170BDC4F10004203C35DA0C341BDCB6
:1009780004F11404C4F1200500FA05F320FA04F088
:1009880001FA05F240EA020001F0004221F00041BC
:1009980010EBD37021FA04F642EB06015EEA430E2F
:1009A80008BF20EAD37070BDC4F10C04C4F120055F
:1009B80000FA04F320FA05F001FA04F240EA020012
:1009C80001F0004110EBD37041F100015EEA430EE3
:1009D80008BF20EAD37070BDC4F1200500FA05F203
:1009E8004EEA020E20FA04F301FA05F243EA020382
:1009F80021FA04F001F0004121FA04F220EA020091
:100A080000EBD3705EEA430E08BF20EAD37070BDD6
:100A180094F0000F0FD101F00046400041EB0101B6
:100A280011F4801F08BF013CF7D041EA060195F098
:100A3800000F18BF704703F00046520043EB030352
:100A480013F4801F08BF013DF7D043EA060370473F
:100A580094EA0C0F0CEA135518BF95EA0C0F0CD04A
:100A680050EA410618BF52EA4306D1D181EA030190
:100A780001F000414FF0000070BD50EA410606BF8A
:100A88001046194652EA430619D094EA0C0F02D1CF
:100A980050EA013613D195EA0C0F05D152EA033614
:100AA8001CBF104619460AD181EA030101F0004132
:100AB80041F0FE4141F470014FF0000070BD41F07B
:100AC800FE4141F4780170BD70B54FF0FF0C4CF455
:100AD800E06C1CEA11541DBF1CEA135594EA0C0F74
:100AE80095EA0C0F00F0A7F8A4EB050481EA030EC1
:100AF80052EA03354FEA013100F088804FEA0333A8
:100B08004FF0805545EA131343EA12634FEA022275
:100B180045EA111545EA10654FEA00260EF0004136
:100B28009D4208BF964244F1FD0404F5407402D288
:100B38005B084FEA3202B61A65EB03055B084FEA19
:100B480032024FF480104FF4002CB6EB020E75EB16
:100B5800030E22BFB61A754640EA0C005B084FEA3E
:100B68003202B6EB020E75EB030E22BFB61A7546BB
:100B780040EA5C005B084FEA3202B6EB020E75EB06
:100B8800030E22BFB61A754640EA9C005B084FEA7E
:100B98003202B6EB020E75EB030E22BFB61A75468B
:100BA80040EADC0055EA060E18D04FEA051545EA7A
:100BB80016754FEA06164FEAC30343EA52734FEA23
:100BC800C2025FEA1C1CC0D111F4801F0BD141EA9C
:100BD80000014FF000004FF0004CB6E711F4801F01
:100BE80004BF01430020B4F1FD0C88BFBCF5E06FE1
:100BF8003FF6AFAEB5EB030C04BFB6EB020C5FEAF1
:100C0800500C50F1000041EB045170BD0EF0004E45
:100C18004EEA113114EB5C04C2BFD4EB0C0541EA77
:100C2800045170BD41F480114FF0000E013C90E674
:100C380045EA060E8DE60CEA135594EA0C0F08BF38
:100C480095EA0C0F3FF43BAF94EA0C0F0AD150EA37
:100C580001347FF434AF95EA0C0F7FF425AF1046CA
:100C680019462CE795EA0C0F06D152EA03353FF4F2
:100C7800FDAE1046194622E750EA410618BF52EA6F
:100C880043067FF4C5AE50EA41047FF40DAF52EA43
:100C980043057FF4EBAE12E74FF0FF3C06E000BFE0
:100CA8004FF0010C02E000BF4FF0010C4DF804CDED
:100CB8004FEA410C7FEA6C5C4FEA430C18BF7FEAAD
:100CC8006C5C1BD001B050EA410C0CBF52EA430CDB
:100CD80091EA030F02BF90EA020F0020704710F15B
:100CE800000F91EA030F58BF994208BF90422CBFEA
:100CF800D8176FEAE37040F0010070474FEA410CE3
:100D08007FEA6C5C02D150EA013C07D14FEA430C00
:100D18007FEA6C5CD6D152EA033CD3D05DF8040B71
:100D2800704700BF8446104662468C4619466346A3
:100D380000E000BF01B5FFF7B7FF002848BF10F17A
:100D4800000F01BD4DF808EDFFF7F4FF0CBF0120BF
:100D580000205DF808FB00BF4DF808EDFFF7EAFF3B
:100D680034BF012000205DF808FB00BF4DF808EDF6
:100D7800FFF7E0FF94BF012000205DF808FB00BFEB
:100D88004DF808EDFFF7CEFF94BF012000205DF875
:100D980008FB00BF4DF808EDFFF7C4FF34BF012082
:100DA80000205DF808FB00BF4FEA410C7FEA6C5C4D
:100DB80002D150EA013C0AD14FEA430C7FEA6C5C4D
:100DC80002D152EA033C02D14FF0000070474FF0C5
:100DD800010070474FEA410212F5001215D211D5F1
:100DE8006FF47873B3EB625212D94FEAC12343F020
:100DF800004343EA505311F0004F23FA02F018BFA2
:100E0800404270474FF00000704750EA013005D16A
:100E180011F0004008BF6FF0004070474FF000002D
:100E2800704700BF80B500AF0E4A0E4B1B6843F4F5
:100E3800007313600B4A0B4B1B6843F48063136009
:100E4800084A084B1B6843F480731360032000F0C2
:100E58004BF9002000F008F803F076FD002318464F
:100E680080BD00BF003C024080B582B000AF786012
:100E7800124B1A68124B1B7819464FF47A73B3FB5E
:100E8800F1F3B2FBF3F3184600F056F90346002BD2
:100E980001D001230EE07B680F2B0AD80022796865
:100EA8004FF0FF3000F02CF9064A7B6813600023EE
:100EB80000E0012318460837BD4680BD2800002001
:100EC800040000200000002080B400AF064B1B780F
:100ED8001A46064B1B681344044A136000BFBD46FC
:100EE8005DF8047B704700BF0400002090020020DA
:100EF80080B400AF034B1B681846BD465DF8047B01
:100F0800704700BF9002002080B584B000AF7860C1
:100F1800FFF7EEFFB8607B68FB60FB68B3F1FF3F4B
:100F280005D0094B1B781A46FB681344FB6000BFC9
:100F3800FFF7DEFF0246BB68D21AFB689A42F7D376
:100F480000BF1037BD4680BD0400002080B485B0C6
:100F580000AF78607B6803F00703FB600C4BDB682D
:100F6800BB60BA684FF6FF031340BB60FB681A0208
:100F7800BB68134343F0BF6343F40033BB60044AC8
:100F8800BB68D36000BF1437BD465DF8047B70476B
:100F980000ED00E080B400AF044BDB6803F4E063CD
:100FA8001B0A1846BD465DF8047B704700ED00E05B
:100FB80080B483B000AF0346FB7197F90730002B6C
:100FC8000CDB094997F907305B09FA7902F01F022F
:100FD800012000FA02F2603341F8232000BF0C37E9
:100FE800BD465DF8047B704700E100E080B483B043
:100FF80000AF03463960FB7197F90730002B0ADB15
:101008000D4997F907303A68D2B21201D2B20B44AF
:1010180083F800230AE00949FB7903F00F03043B36
:101028003A68D2B21201D2B20B441A7600BF0C371A
:10103800BD465DF8047B704700E100E000ED00E08C
:1010480080B489B000AFF860B9607A60FB6803F0DB
:101058000703FB61FB69C3F10703042B28BF0423C3
:10106800BB61FB690433062B02D9FB69033B00E033
:1010780000237B610122BB6902FA03F35A1EBB6895
:101088001A407B699A4001217B6901FA03F3591ED2
:101098007B680B40134318462437BD465DF8047B34
:1010A800704700BF80B582B000AF78607B68013BB5
:1010B800B3F1807F01D301230FE00A4A7B68013B2B
:1010C80053600F214FF0FF30FFF790FF054B0022D0
:1010D8009A60044B07221A60002318460837BD4659
:1010E80080BD00BF10E000E080B582B000AF78603E
:1010F8007868FFF72BFF00BF0837BD4680BD00BFEB
:1011080080B586B000AF0346B9607A60FB730023F0
:101118007B61FFF73FFF78617A68B9687869FFF704
:101128008FFF024697F90F3011461846FFF75EFF0A
:1011380000BF1837BD4680BD80B582B000AF78606B
:101148007868FFF7AFFF034618460837BD4680BDED
:1011580080B582B000AF0346FB7197F90730184697
:10116800FFF726FF00BF0837BD4680BD80B489B0B1
:1011780000AF7860396000237B6100233B61002366
:10118800BB610023FB616BE10122FB6902FA03F3F7
:101198007B613B681A687B6913403B613A697B69EC
:1011A8009A4240F05A813B685B68012B0BD03B6840
:1011B8005B68022B07D03B685B68112B03D03B6848
:1011C8005B68122B30D17B689B68BB61FB695B0055
:1011D800032202FA03F3DB43BA691340BB613B689D
:1011E800DA68FB695B0002FA03F3BA691343BB616F
:1011F8007B68BA699A607B685B68BB610122FB699E
:1012080002FA03F3DB43BA691340BB613B685B68CE
:101218001B0903F00102FB6902FA03F3BA691343DD
:10122800BB617B68BA695A607B68DB68BB61FB6934
:101238005B00032202FA03F3DB43BA691340BB6184
:101248003B689A68FB695B0002FA03F3BA691343C7
:10125800BB617B68BA69DA603B685B68022B03D0C4
:101268003B685B68122B23D1FB69DA087B6808327C
:1012780053F82230BB61FB6903F007039B000F2280
:1012880002FA03F3DB43BA691340BB613B681A698E
:10129800FB6903F007039B0002FA03F3BA691343DF
:1012A800BB61FB69DA087B680832B96943F8221028
:1012B8007B681B68BB61FB695B00032202FA03F3CE
:1012C800DB43BA691340BB613B685B6803F0030208
:1012D800FB695B0002FA03F3BA691343BB617B68DD
:1012E800BA691A603B685B6803F08053002B00F012
:1012F800B4800023FB605F4A5E4B5B6C43F4804321
:1013080053645C4B5B6C03F48043FB60FB685A4A94
:10131800FB699B08023352F82330BB61FB6903F079
:1013280003039B000F2202FA03F3DB43BA6913405D
:10133800BB617B68514A93422BD07B68504A9342E9
:1013480025D07B684F4A93421FD07B684E4A934210
:1013580019D07B684D4A934213D07B684C4A93421C
:101368000DD07B684B4A934207D07B684A4A934228
:1013780001D107230EE008230CE006230AE0052329
:1013880008E0042306E0032304E0022302E001232B
:1013980000E00023FA6902F0030292009340BA6960
:1013A8001343BB613449FB699B080233BA6941F8AE
:1013B80023203A4B1B68BB613B69DB43BA69134086
:1013C800BB613B685B6803F48033002B03D0BA69C8
:1013D8003B691343BB61314ABB6913602F4B5B68A0
:1013E800BB613B69DB43BA691340BB613B685B681F
:1013F80003F40033002B03D0BA693B691343BB6184
:10140800264ABB695360254B9B68BB613B69DB433C
:10141800BA691340BB613B685B6803F48013002B17
:1014280003D0BA693B691343BB611C4ABB6993602B
:101438001A4BDB68BB613B69DB43BA691340BB618C
:101448003B685B6803F40013002B03D0BA693B695F
:101458001343BB61114ABB69D360FB690133FB616C
:10146800FB690F2B7FF690AE00BF2437BD465DF8B1
:10147800047B7047003802400038014000000240F9
:101488000004024000080240000C02400010024024
:101498000014024000180240001C0240003C0140B9
:1014A80080B485B000AF78600B467B807B681A6992
:1014B8007B881340002B02D00123FB7301E000233B
:1014C800FB73FB7B18461437BD465DF8047B7047F9
:1014D80080B483B000AF78600B467B8013467B7086
:1014E8007B78002B03D07A887B689A6103E07B883D
:1014F8001A047B689A6100BF0C37BD465DF8047B0F
:10150800704700BF80B586B000AF78607B68002B5D
:1015180001D101235AE27B681B6803F00103002B09
:1015280074D0A74B9B6803F00C03042B0BD0A44B7F
:101538009B6803F00C03082B11D1A14B5B6803F4E3
:101548008003002B0BD09E4B1B6803F40033002B49
:101558005BD07B685B68002B57D1012336E27B6840
:101568005B68B3F5803F06D1954A954B1B6843F4F9
:10157800803313601DE07B685B68B3F5A02F0CD146
:101588008F4A8F4B1B6843F4802313608C4A8C4B23
:101598001B6843F4803313600BE0894A884B1B684F
:1015A80023F480331360864A854B1B6823F4802319
:1015B80013607B685B68002B13D0FFF799FC3861D8
:1015C80008E0FFF795FC02463B69D31A642B01D962
:1015D8000323FBE17A4B1B6803F40033002BF0D0A4
:1015E80014E0FFF785FC386108E0FFF781FC02464C
:1015F8003B69D31A642B01D90323E7E1704B1B68BD
:1016080003F40033002BF0D100E000BF7B681B68B7
:1016180003F00203002B63D0694B9B6803F00C03B3
:10162800002B0BD0664B9B6803F00C03082B1CD1D6
:10163800634B5B6803F48003002B16D1604B1B6877
:1016480003F00203002B05D07B68DB68012B01D077
:101658000123BBE15A495A4B1B6823F0F8027B6807
:101668001B69DB0013430B603AE07B68DB68002BE7
:1016780020D0544B01221A60FFF73AFC386108E089
:10168800FFF736FC02463B69D31A022B01D9032324
:101698009CE14B4B1B6803F00203002BF0D0484938
:1016A800474B1B6823F0F8027B681B69DB00134378
:1016B8000B6015E0434B00221A60FFF719FC3861F4
:1016C80008E0FFF715FC02463B69D31A022B01D943
:1016D80003237BE13A4B1B6803F00203002BF0D194
:1016E8007B681B6803F00803002B30D07B685B69BC
:1016F800002B16D0344B01221A60FFF7F9FB386132
:1017080008E0FFF7F5FB02463B69D31A022B01D923
:1017180003235BE12A4B5B6F03F00203002BF0D03D
:1017280015E0294B00221A60FFF7E2FB386108E058
:10173800FFF7DEFB02463B69D31A022B01D90323CC
:1017480044E11F4B5B6F03F00203002BF0D17B6871
:101758001B6803F00403002B00F0A0800023FB7536
:10176800174B1B6C03F08053002B0FD10023BB6079
:10177800134A134B1B6C43F080531364104B1B6CC0
:1017880003F08053BB60BB680123FB750F4B1B68DC
:1017980003F48073002B21D10C4A0C4B1B6843F4D3
:1017A80080731360FFF7A4FB386111E0FFF7A0FB1B
:1017B80002463B69D31A022B0AD9032306E100BF6C
:1017C8000038024000004742800E47420070004047
:1017D800804B1B6803F48073002BE7D07B689B6801
:1017E800012B06D17C4A7C4B1B6F43F00103136726
:1017F8001CE07B689B68052B0CD1774A764B1B6FE6
:1018080043F004031367744A734B1B6F43F00103DF
:1018180013670BE0704A704B1B6F23F001031367CB
:101828006D4A6D4B1B6F23F0040313677B689B683D
:10183800002B15D0FFF75CFB38610AE0FFF758FB77
:1018480002463B69D31A41F28832934201D90323F5
:10185800BCE0614B1B6F03F00203002BEED014E0D9
:10186800FFF746FB38610AE0FFF742FB02463B6997
:10187800D31A41F28832934201D90323A6E0564B8A
:101888001B6F03F00203002BEED1FB7D012B05D16A
:10189800514A514B1B6C23F0805313647B689B693E
:1018A800002B00F092804C4B9B6803F00C03082B34
:1018B8005CD07B689B69022B41D1484B00221A609F
:1018C800FFF716FB386108E0FFF712FB02463B6999
:1018D800D31A022B01D9032378E03F4B1B6803F08E
:1018E8000073002BF0D13C497B68DA697B681B6A7E
:1018F8001A437B685B6A9B011A437B689B6A5B0897
:10190800013B1B041A437B68DB6A1B0613434B60CD
:10191800324B01221A60FFF7EBFA386108E0FFF753
:10192800E7FA02463B69D31A022B01D903234DE09B
:10193800294B1B6803F00073002BF0D045E0274BC0
:1019480000221A60FFF7D4FA386108E0FFF7D0FAEE
:1019580002463B69D31A022B01D9032336E01E4BFA
:101968001B6803F00073002BF0D12EE07B689B69A5
:10197800012B01D1012329E0174B9B68FB60FB6811
:1019880003F480027B68DB699A421CD1FB6803F090
:101998003F027B681B6A9A4215D1FA6847F6C07302
:1019A80013407A68526A93420DD1FB6803F44032BF
:1019B8007B689B6A9A4206D1FB6803F070627B6879
:1019C800DB6A9A4201D0012300E000231846183749
:1019D800BD4680BD007000400038024060004742AC
:1019E80080B584B000AF786039607B68002B01D186
:1019F8000123CCE0684B1B6803F00F023B689A4256
:101A08000CD2654B3A68D2B21A70634B1B6803F06C
:101A18000F023B689A4201D00123B8E07B681B683B
:101A280003F00203002B20D07B681B6803F004033B
:101A3800002B05D0594A594B9B6843F4E0539360F7
:101A48007B681B6803F00803002B05D0534A534BEF
:101A58009B6843F4604393605049504B9B6823F064
:101A6800F0027B689B6813438B607B681B6803F0FC
:101A78000103002B44D07B685B68012B07D1474BDF
:101A88001B6803F40033002B19D101237FE07B6826
:101A98005B68022B03D07B685B68032B07D13F4B45
:101AA8001B6803F00073002B09D101236FE03B4B47
:101AB8001B6803F00203002B01D1012367E03749BB
:101AC800364B9B6823F003027B685B6813438B608B
:101AD800FFF70EFAF8600AE0FFF70AFA0246FB6819
:101AE800D31A41F28832934201D903234FE02B4B9A
:101AF8009B6803F00C027B685B689B009A42EBD101
:101B0800254B1B6803F00F023B689A420CD9224B05
:101B18003A68D2B21A70204B1B6803F00F023B6878
:101B28009A4201D0012332E07B681B6803F004036A
:101B3800002B08D01949194B9B6823F4E0527B68A5
:101B4800DB6813438B607B681B6803F00803002B7A
:101B580009D01249114B9B6823F460427B681B69CA
:101B6800DB0013438B6000F021F801460B4B9B68A8
:101B780003F0F0031B090A4AD35C21FA03F3094A6C
:101B88001360094B1B681846FFF76EF900231846C7
:101B98001037BD4680BD00BF003C024000380240FF
:101BA8007067000828000020000000202DE9F04F91
:101BB8008FB000AF0023FB6200237B630023BB626E
:101BC80000233B63614B9B6803F00C03042B07D095
:101BD800082B08D0002B40F0AF805D4B3B63AEE094
:101BE8005C4B3B63ABE0594B5B6803F03F03FB6224
:101BF800564B5B6803F48003002B4DD0534B5A6857
:101C080047F6C07313409B0919464FF000020B4674
:101C18001446E0007862786A40EA53707862DB0024
:101C28003B62D7E908346001F861F86940EAD3609B
:101C3800F8615801B861D7E90656ED1A66EB040653
:101C480033464FEA83192B4649EA93692B464FEAF4
:101C58008318B8EB050569EB0606A846B14618EBEC
:101C6800010849EB02094FEA49237B617B6943EA92
:101C7800D8537B614FEA48233B61D7E90489404642
:101C88004946FB6A4FF000041A462346FEF7A6FAB7
:101C980003460C467B6341E02C4B5A6847F6C073F9
:101CA80013409B0919464FF000020B461446E0000A
:101CB800F860F86840EA5370F860DB00BB60D7E969
:101CC80002344FEA441B4BEAD36B4FEA431ABAEB90
:101CD800030A6BEB040B4FEA8B1646EA9A664FEA47
:101CE8008A15B5EB0A0566EB0B066D1846EB02067E
:101CF800B3027B607B6843EA95537B60AB023B6031
:101D0800D7E9005628463146FB6A4FF000041A46C8
:101D18002346FEF763FA03460C467B630B4B5B686E
:101D280003F440331B0C01335B00BB627A6BBB6A64
:101D3800B2FBF3F33B6302E0054B3B6300BF3B6B35
:101D480018463C37BD46BDE8F08F00BF003802405A
:101D58000024F40000127A0080B400AF034B1B6823
:101D68001846BD465DF8047B704700BF2800002078
:101D780080B500AFFFF7F0FF0146054B9B6803F401
:101D8800E0539B0A034AD35C21FA03F3184680BD4B
:101D9800003802408067000880B500AFFFF7DCFF1D
:101DA8000146054B9B6803F460435B0B034AD35C15
:101DB80021FA03F3184680BD003802408067000806
:101DC80080B582B000AF78607B68002B01D1012319
:101DD80055E07B6800229A627B6893F85130DBB249
:101DE800002B06D17B68002283F85020786802F027
:101DF800D3FD7B68022283F851207B681B687A68D0
:101E08001268126822F040021A607B681B687A68C0
:101E180051687A68926811437A68D26811437A687F
:101E2800126911437A68526911437A68926902F417
:101E3800007211437A68D26911437A68126A1143B1
:101E48007A68926A0A431A607B681B687A689269A2
:101E5800120C02F004017A68526A0A435A607B68DD
:101E68001B687A681268D26922F40062DA617B68BA
:101E780000225A657B68012283F851200023184606
:101E88000837BD4680BD00BF80B588B000AFF86098
:101E9800B9603B601346FB800023FB77FB6893F82F
:101EA8005030012B01D102231CE1FB68012283F889
:101EB8005020FFF71DF8B861FB88FB82FB6893F898
:101EC8005130DBB2012B02D00223FB7701E1BB6862
:101ED800002B02D0FB88002B02D10123FB77F8E00E
:101EE800FB68032283F85120FB6800225A65FB68CF
:101EF800BA681A63FB68FA889A86FB68FA88DA86F1
:101F0800FB6800229A63FB6800229A87FB6800221C
:101F1800DA87FB6800225A64FB6800221A64FB68AF
:101F28009B68B3F5004F07D1FB681B68FA68126815
:101F3800126842F480421A60FB681B681B6803F051
:101F48004003002B07D1FB681B68FA681268126807
:101F580042F040021A60FB68DB68B3F5006F4BD1B2
:101F6800FB685B68002B02D0FB8A012B3ED1FB6823
:101F78001B68FA68126B1288DA60FB681B6B9A1C84
:101F8800FB681A63FB68DB8E9BB2013B9AB2FB6865
:101F9800DA862BE0FB681B689B6803F00203002BC2
:101FA80012D0FB681B68FA68126B1288DA60FB684B
:101FB8001B6B9A1CFB681A63FB68DB8E9BB2013BA8
:101FC8009AB2FB68DA8611E0FEF792FF0246BB6917
:101FD800D21A3B689A4203D33B68B3F1FF3F02D160
:101FE8003B68002B02D10323FB7772E0FB68DB8E92
:101FF8009BB2002BCED14CE0FB685B68002B02D073
:10200800FB8A012B40D1FB681B680C33FA68126B02
:1020180012781A70FB681B6B5A1CFB681A63FB6802
:10202800DB8E9BB2013B9AB2FB68DA862CE0FB6838
:102038001B689B6803F00203002B13D0FB681B6826
:102048000C33FA68126B12781A70FB681B6B5A1CF7
:10205800FB681A63FB68DB8E9BB2013B9AB2FB6894
:10206800DA8611E0FEF744FF0246BB69D21A3B68E4
:102078009A4203D33B68B3F1FF3F02D13B68002B80
:1020880002D10323FB7724E0FB68DB8E9BB2002B95
:10209800CDD1BA693968F86800F09EFB0346002B79
:1020A80002D0FB6820225A65FB689B68002B0AD186
:1020B80000233B61FB681B68DB683B61FB681B68AE
:1020C8009B683B613B69FB685B6D002B01D001237A
:1020D800FB77FB68012283F85120FB68002283F814
:1020E8005020FB7F18462037BD4680BD80B588B09C
:1020F80002AFF860B9603B601346FB800023FB75B4
:10210800FB685B68B3F5827F12D1FB689B68002B84
:102118000ED1FB68042283F85120FA883B680093AB
:102128001346BA68B968F86800F0E6F80346DFE0D5
:10213800FB6893F85030012B01D10223D8E0FB68EB
:10214800012283F85020FEF7D3FE3861FB6893F82C
:102158005130DBB2012B02D00223FB75BFE0BB6814
:10216800002B02D0FB88002B02D10123FB75B6E0BF
:10217800FB68042283F85120FB6800225A65FB683B
:10218800BA689A63FB68FA889A87FB68FA88DA87DC
:10219800FB6800221A63FB6800229A86FB6800220B
:1021A800DA86FB6800221A64FB6800225A64FB681E
:1021B8009B68B3F5004F07D1FB681B68FA68126883
:1021C800126822F480421A60FB681B681B6803F0DF
:1021D8004003002B07D1FB681B68FA681268126875
:1021E80042F040021A60FB68DB68002B61D12DE0E9
:1021F800FB681B689B6803F00103002B14D0FB6885
:102208009B6BFA6812680C321278D2B21A70FB68AB
:102218009B6B5A1CFB689A63FB68DB8F9BB2013B84
:102228009AB2FB68DA8711E0FEF762FE02463B6964
:10223800D21A3B689A4203D33B68B3F1FF3F02D1FD
:102248003B68002B02D10323FB7548E0FB68DB8F5A
:102258009BB2002BCCD131E0FB681B689B6803F074
:102268000103002B13D0FB689B6BFA681268D268D5
:1022780092B21A80FB689B6B9A1CFB689A63FB6896
:10228800DB8F9BB2013B9AB2FB68DA8711E0FEF75D
:102298002FFE02463B69D21A3B689A4203D33B6839
:1022A800B3F1FF3F02D13B68002B02D10323FB753A
:1022B80015E0FB68DB8F9BB2002BCDD13A693968FA
:1022C800F86800F023FA0346002B02D0FB682022AE
:1022D8005A65FB685B6D002B01D00123FB75FB6819
:1022E800012283F85120FB68002283F85020FB7DEF
:1022F80018461837BD4680BD80B58CB000AFF86071
:10230800B9607A607B800123FB62002387F82B3059
:10231800FB6893F85030012B01D1022388E1FB6858
:10232800012283F85020FEF7E3FD7862FB6893F8FA
:10233800513087F82330FB685B68FB617B887B83BF
:1023480097F82330012B0FD0FB69B3F5827F07D1B3
:10235800FB689B68002B03D197F82330042B03D02C
:10236800022387F82B3059E1BB68002B05D07B6826
:10237800002B02D07B88002B03D1012387F82B3058
:102388004CE1FB6893F85130DBB2042B03D0FB68B7
:10239800052283F85120FB6800225A65FB687A6899
:1023A8009A63FB687A88DA87FB687A889A87FB6879
:1023B800BA681A63FB687A88DA86FB687A889A862C
:1023C800FB6800221A64FB6800225A64FB681B68D9
:1023D8001B6803F04003002B07D1FB681B68FA68F1
:1023E8001268126842F040021A60FB68DB68B3F5B5
:1023F800006F78D1FB685B68002B02D07B8B012BC8
:1024080066D1FB681B68FA68126B1288DA60FB6891
:102418001B6B9A1CFB681A63FB68DB8E9BB2013B43
:102428009AB2FB68DA8653E0FB681B689B6803F086
:102438000203002B1BD0FB68DB8E9BB2002B16D04F
:10244800FB6A012B13D1FB681B68FA68126B1288B0
:10245800DA60FB681B6B9A1CFB681A63FB68DB8EEF
:102468009BB2013B9AB2FB68DA860023FB62FB68E9
:102478001B689B6803F00103002B19D0FB68DB8FF6
:102488009BB2002B14D0FB689B6BFA681268D26869
:1024980092B21A80FB689B6B9A1CFB689A63FB6874
:1024A800DB8F9BB2013B9AB2FB68DA870123FB62A0
:1024B800FEF71EFD02467B6AD21ABB6B9A4207D30F
:1024C800BB6BB3F1FF3F03D0032387F82B30A5E0A4
:1024D800FB68DB8E9BB2002BA6D1FB68DB8F9BB21F
:1024E800002BA1D17CE0FB685B68002B02D07B8BC2
:1024F800012B6BD1FB681B680C33FA68126B1278DE
:102508001A70FB681B6B5A1CFB681A63FB68DB8E2E
:102518009BB2013B9AB2FB68DA8657E0FB681B68FE
:102528009B6803F00203002B1CD0FB68DB8E9BB278
:10253800002B17D0FB6A012B14D1FB681B680C33E6
:10254800FA68126B12781A70FB681B6B5A1CFB68CE
:102558001A63FB68DB8E9BB2013B9AB2FB68DA8692
:102568000023FB62FB681B689B6803F00103002BD8
:1025780019D0FB68DB8F9BB2002B14D0FB689B6BD8
:10258800FA681268D268D2B21A70FB689B6B5A1C40
:10259800FB689A63FB68DB8F9BB2013B9AB2FB68CE
:1025A800DA870123FB62FEF7A3FC02467B6AD21A94
:1025B800BB6B9A4203D3BB6BB3F1FF3F02D1BB6B3A
:1025C800002B03D1032387F82B3027E0FB68DB8E31
:1025D8009BB2002BA2D1FB68DB8F9BB2002B9DD155
:1025E8007A6AB96BF86800F0F7F80346002B06D052
:1025F800012387F82B30FB6820225A650EE0FB6820
:102608009B68002B0AD100237B61FB681B68DB6891
:102618007B61FB681B689B687B617B69FB680122A7
:1026280083F85120FB68002283F8502097F82B305C
:1026380018463037BD4680BD80B584B000AFF8601D
:10264800B9603B601346FB714CE03B68B3F1FF3F58
:1026580048D0FEF74DFC0246BB69D21A3B689A4245
:1026680002D23B68002B3DD1FB681B68FA681268F0
:10267800526822F0E0025A60FB685B68B3F5827F1B
:1026880011D1FB689B68B3F5004F04D0FB689B68C9
:10269800B3F5806F07D1FB681B68FA681268126887
:1026A80022F040021A60FB689B6AB3F5005F0FD105
:1026B800FB681B68FA681268126822F400521A60F4
:1026C800FB681B68FA681268126842F400521A60C4
:1026D800FB68012283F85120FB68002283F8502010
:1026E80003230FE0FB681B689A68BB681A40BB6845
:1026F8009A420CBF01230023DBB21A46FB799A42A7
:10270800A3D1002318461037BD4680BD80B586B0DA
:1027180002AFF860B9607A60FB685B68B3F5827FE6
:1027280011D1FB689B68B3F5004F04D0FB689B6828
:10273800B3F5806F07D1FB681B68FA6812681268E6
:1027480022F040021A60FB685B68B3F5827F2AD1E9
:10275800FB689B68B3F5806F12D07B680093BB68F9
:1027680000228021F868FFF767FF0346002B2DD071
:10277800FB685B6D43F02002FB685A65032326E083
:102788007B680093BB6800220121F868FFF754FFBB
:102798000346002B1AD0FB685B6D43F02002FB68F0
:1027A8005A65032313E07B680093BB68002201216C
:1027B800F868FFF741FF0346002B07D0FB685B6D05
:1027C80043F02002FB685A65032300E00023184603
:1027D8001037BD4680BD00BF80B588B002AFF86035
:1027E800B9607A601B4B1B681B4AA2FB03235B0D75
:1027F8004FF47A7202FB03F37B61FB685B68B3F505
:10280800827F12D17B680093BB6800228021F86820
:10281800FFF712FF0346002B16D0FB685B6D43F0F1
:102828002002FB685A6503230FE07B69002B0AD05E
:102838007B69013B7B61FB681B689B6803F0800335
:10284800002BF2D100E000BF002318461837BD4620
:1028580080BD00BF28000020819F5E1680B582B031
:1028680000AF78607B68002B01D101231DE07B68F5
:1028780093F83D30DBB2002B06D17B68002283F849
:102888003C20786802F0D0F87B68022283F83D206B
:102898007B681A687B6804331946104600F0FCF917
:1028A8007B68012283F83D20002318460837BD467F
:1028B80080BD00BF80B582B000AF78607B68002B18
:1028C80001D101231DE07B6893F83D30DBB2002B7A
:1028D80006D17B68002283F83C20786800F016F85F
:1028E8007B68022283F83D207B681A687B68043382
:1028F8001946104600F0D0F97B68012283F83D2084
:10290800002318460837BD4680BD00BF80B483B099
:1029180000AF786000BF0C37BD465DF8047B704798
:1029280080B584B000AF786039607B681B6801228D
:102938003968184600F09CFC7B681B68154A93426E
:1029480004D07B681B68144A934201D1012300E03C
:102958000023002B07D07B681B687A681268526CCA
:1029680042F400425A647B681B689B6803F00703C3
:10297800FB60FB68062B07D07B681B687A681268C7
:10298800126842F001021A60002318461037BD464B
:1029980080BD00BF000001400004014080B584B044
:1029A80000AFF860B9607A60FB6893F83C30012B9F
:1029B80001D10223B4E0FB68012283F83C20FB68C4
:1029C800022283F83D207B680C2B00F29F8001A235
:1029D80052F823F0112A0008152B0008152B0008BF
:1029E800152B0008512A0008152B0008152B000884
:1029F800152B0008932A0008152B0008152B000832
:102A0800152B0008D32A0008FB681B68B96818460C
:102A180000F0E2F9FB681B68FA681268926942F0F4
:102A280008029A61FB681B68FA681268926922F0CA
:102A380004029A61FB681B68FA6812689169BA68AF
:102A480012690A439A6162E0FB681B68B968184614
:102A580000F032FAFB681B68FA681268926942F45F
:102A680000629A61FB681B68FA681268926922F42E
:102A780080629A61FB681B68FA6812689169BA6893
:102A8800126912020A439A6141E0FB681B68B9683F
:102A9800184600F087FAFB681B68FA681268D26962
:102AA80042F00802DA61FB681B68FA681268D269AA
:102AB80022F00402DA61FB681B68FA681268D169BF
:102AC800BA6812690A43DA6121E0FB681B68B968D1
:102AD800184600F0DBFAFB681B68FA681268D269CE
:102AE80042F40062DA61FB681B68FA681268D2690E
:102AF80022F48062DA61FB681B68FA681268D1699F
:102B0800BA68126912020A43DA6100E000BFFB6882
:102B1800012283F83D20FB68002283F83C20002333
:102B280018461037BD4680BD80B584B000AF7860C8
:102B380039607B6893F83C30012B01D10223A6E071
:102B48007B68012283F83C207B68022283F83D20C1
:102B58007B681B689B68FB60FB6823F07703FB605E
:102B6800FB6823F47F43FB607B681B68FA689A6004
:102B78003B681B68402B67D0402B0BD8102B73D0B9
:102B8800102B02D8002B6FD078E0202B6CD0302B84
:102B98006AD073E0702B0DD0702B04D8502B33D033
:102BA800602B41D06AE0B3F5805F66D0B3F5005F73
:102BB80017D063E07B6818683B6899683B685A6877
:102BC8003B68DB6800F034FB7B681B689B68FB6034
:102BD800FB6843F07703FB607B681B68FA689A60C0
:102BE8004CE07B6818683B6899683B685A683B68A2
:102BF800DB6800F01DFB7B681B687A6812689268C6
:102C080042F480429A6039E07B6818683B685968EA
:102C18003B68DB681A4600F08FFA7B681B68502116
:102C2800184600F0E9FA29E07B6818683B6859689B
:102C38003B68DB681A4600F0AFFA7B681B686021C6
:102C4800184600F0D9FA19E07B6818683B6859689B
:102C58003B68DB681A4600F06FFA7B681B68402106
:102C6800184600F0C9FA09E07B681A683B681B68D7
:102C78001946104600F0C0FA00E000BF7B68012248
:102C880083F83D207B68002283F83C200023184607
:102C98001037BD4680BD00BF80B485B000AF7860F6
:102CA80039607B681B68FB607B68404A934213D09D
:102CB8007B68B3F1804F0FD07B683D4A93420BD0BD
:102CC8007B683C4A934207D07B683B4A934203D0D7
:102CD8007B683A4A934208D1FB6823F07003FB6093
:102CE8003B685B68FA681343FB607B682F4A934232
:102CF8002BD07B68B3F1804F27D07B682C4A934256
:102D080023D07B682B4A93421FD07B682A4A934280
:102D18001BD07B68294A934217D07B68284A934284
:102D280013D07B68274A93420FD07B68264A934288
:102D38000BD07B68254A934207D07B68244A93428C
:102D480003D07B68234A934208D1FB6823F440737D
:102D5800FB603B68DB68FA681343FB60FB6823F0A1
:102D680080023B685B691343FB607B68FA681A6002
:102D78003B689A687B68DA623B681A687B689A6283
:102D88007B680A4A934203D07B680C4A934203D17A
:102D98003B681A697B681A637B6801225A6100BF25
:102DA8001437BD465DF8047B704700BF0000014042
:102DB8000004004000080040000C004000040140EE
:102DC8000040014000440140004801400018004014
:102DD800001C00400020004080B487B000AF78603D
:102DE80039607B681B6A23F001027B681A627B6882
:102DF8001B6A7B617B685B683B617B689B69FB60E6
:102E0800FB6823F07003FB60FB6823F00303FB609F
:102E18003B681B68FA681343FB607B6923F0020375
:102E28007B613B689B687A6913437B617B68204AB6
:102E3800934203D07B681F4A93420CD17B6923F0ED
:102E480008037B613B68DB687A6913437B617B69B4
:102E580023F004037B617B68154A934203D07B68A7
:102E6800144A934211D13B6923F480733B613B6957
:102E780023F400733B613B685B693A6913433B6128
:102E88003B689B693A6913433B617B683A695A60BE
:102E98007B68FA689A613B685A687B685A637B6802
:102EA8007A691A6200BF1C37BD465DF8047B70471B
:102EB800000001400004014080B487B000AF786092
:102EC80039607B681B6A23F010027B681A627B6892
:102ED8001B6A7B617B685B683B617B689B69FB6005
:102EE800FB6823F4E043FB60FB6823F44073FB605A
:102EF8003B681B681B02FA681343FB607B6923F07D
:102F080020037B613B689B681B017A6913437B61E3
:102F18007B68224A934203D07B68214A93420DD1B1
:102F28007B6923F080037B613B68DB681B017A695E
:102F380013437B617B6923F040037B617B68174AFD
:102F4800934203D07B68164A934213D13B6923F41A
:102F580080633B613B6923F400633B613B685B69C9
:102F68009B003A6913433B613B689B699B003A6944
:102F780013433B617B683A695A607B68FA689A61D7
:102F88003B685A687B689A637B687A691A6200BFF3
:102F98001C37BD465DF8047B704700BF0000014048
:102FA8000004014080B487B000AF786039607B6866
:102FB8001B6A23F480727B681A627B681B6A7B61D8
:102FC8007B685B683B617B68DB69FB60FB6823F0BF
:102FD8007003FB60FB6823F00303FB603B681B681E
:102FE800FA681343FB607B6923F400737B613B68D9
:102FF8009B681B027A6913437B617B68214A934271
:1030080003D07B68204A93420DD17B6923F4006387
:103018007B613B68DB681B027A6913437B617B69D0
:1030280023F480637B617B68164A934203D07B68F4
:10303800154A934213D13B6923F480533B613B69A2
:1030480023F400533B613B685B691B013A691343F6
:103058003B613B689B691B013A6913433B617B6891
:103068003A695A607B68FA68DA613B685A687B6833
:10307800DA637B687A691A6200BF1C37BD465DF85F
:10308800047B7047000001400004014080B487B011
:1030980000AF786039607B681B6A23F480527B68D4
:1030A8001A627B681B6A3B617B685B687B617B6833
:1030B800DB69FB60FB6823F4E043FB60FB6823F4F7
:1030C8004073FB603B681B681B02FA681343FB6094
:1030D8003B6923F400533B613B689B681B033A69D7
:1030E80013433B617B68124A934203D07B68114AC1
:1030F800934209D17B6923F480437B613B685B6918
:103108009B017A6913437B617B687A695A607B68A3
:10311800FA68DA613B685A687B681A647B683A69BE
:103128001A6200BF1C37BD465DF8047B704700BFBC
:10313800000001400004014080B487B000AFF8608F
:10314800B9607A60FB681B6A7B61FB681B6A23F0C5
:103158000102FB681A62FB689B693B613B6923F0CB
:10316800F0033B617B681B013A6913433B617B6950
:1031780023F00A037B617A69BB6813437B61FB68B0
:103188003A699A61FB687A691A6200BF1C37BD46C2
:103198005DF8047B704700BF80B487B000AFF8606B
:1031A800B9607A60FB681B6A23F01002FB681A6238
:1031B800FB689B697B61FB681B6A3B617B6923F445
:1031C80070437B617B681B037A6913437B613B69AE
:1031D80023F0A0033B61BB681B013A6913433B61C1
:1031E800FB687A699A61FB683A691A6200BF1C3702
:1031F800BD465DF8047B704780B485B000AF786049
:1032080039607B689B68FB60FB6823F07003FB6098
:103218003A68FB68134343F00703FB607B68FA686E
:103228009A6000BF1437BD465DF8047B704700BF45
:1032380080B487B000AFF860B9607A603B60FB6823
:103248009B687B617B6923F47F437B613B681A023F
:103258007B681A43BB6813437A6913437B61FB6835
:103268007A699A6000BF1C37BD465DF8047B7047D9
:1032780080B487B000AFF860B9607A60BB6803F0CB
:103288001F03012202FA03F37B61FB681A6A7B6958
:10329800DB431A40FB681A62FB681A6ABB6803F0D2
:1032A8001F03796801FA03F31A43FB681A6200BF27
:1032B8001C37BD465DF8047B704700BF80B485B0FD
:1032C80000AF786039607B6893F83C30012B01D1FE
:1032D80002235AE07B68012283F83C207B680222A3
:1032E80083F83D207B681B685B68FB607B681B6814
:1032F8009B68BB60FB6823F07003FB603B681B683E
:10330800FA681343FB607B681B68FA685A607B683D
:103318001B68214A934222D07B681B68B3F1804F17
:103328001DD07B681B681D4A934218D07B681B68B8
:103338001B4A934213D07B681B681A4A93420ED0EB
:103348007B681B68184A934209D07B681B68174A38
:10335800934204D07B681B68154A93420CD1BB6822
:1033680023F08003BB603B685B68BA681343BB60AB
:103378007B681B68BA689A607B68012283F83D20E5
:103388007B68002283F83C20002318461437BD468A
:103398005DF8047B704700BF000001400004004056
:1033A80000080040000C00400004014000400140BB
:1033B8000018004080B582B000AF78607B68002BB1
:1033C80001D101233FE07B6893F83930DBB2002B51
:1033D80006D17B68002283F83820786800F038F836
:1033E8007B68242283F839207B681B687A68126816
:1033F800D26822F40052DA60786800F053F97B68EA
:103408001B687A681268126922F490421A617B6814
:103418001B687A681268526922F02A025A617B682E
:103428001B687A681268D26842F40052DA607B68D6
:103438000022DA637B68202283F839207B68202207
:1034480083F83A20002318460837BD4680BD00BFE0
:1034580080B58AB000AF786007F1140300221A60C3
:103468005A609A60DA601A617B681B68194A93424D
:103478002BD100233B61184A174B1B6C43F40033D4
:103488001364154B1B6C03F400333B613B69002349
:10349800FB60114A104B1B6B43F0010313630E4B87
:1034A8001B6B03F00103FB60FB680C237B610223A9
:1034B800BB610123FB6103233B6207237B6207F1A6
:1034C800140319460548FDF751FE00BF2837BD46CD
:1034D80080BD00BF004400400038024000000240A8
:1034E80080B588B002AFF860B9603B601346FB80D6
:1034F80000237B61FB6893F83930DBB2202B40F066
:103508008280BB68002B02D0FB88002B01D10123ED
:103518007AE0FB6893F83830012B01D1022373E07D
:10352800FB68012283F83820FB680022DA63FB6815
:10353800212283F83920FDF7DBFC7861FB68FA88E3
:103548009A84FB68FA88DA8441E0FB68DB8C9BB2DA
:10355800013B9AB2FB68DA84FB689B68B3F5805F2D
:1035680021D13B6800937B6900228021F86800F034
:103578004FF80346002B01D0032345E0BB683B61AD
:10358800FB681B683A691288C2F308025A60FB6834
:103598001B69002B03D1BB680233BB6017E0BB6813
:1035A8000133BB6013E03B6800937B6900228021F4
:1035B800F86800F02DF80346002B01D0032323E020
:1035C800FB681A68BB68591CB9601B785360FB68B4
:1035D800DB8C9BB2002BB8D13B6800937B6900223F
:1035E8004021F86800F014F80346002B01D00323AB
:1035F8000AE0FB68202283F83920FB68002283F860
:103608003820002300E0022318461837BD4680BD45
:1036180080B584B000AFF860B9603B601346FB71B9
:103628002CE0BB69B3F1FF3F28D0BB69002B07D062
:10363800FDF75EFC02463B68D21ABB699A421DD967
:10364800FB681B68FA681268D26822F4D072DA60E4
:10365800FB681B68FA681268526922F001025A6115
:10366800FB68202283F83920FB68202283F83A205F
:10367800FB68002283F8382003230FE0FB681B68EF
:103688001A68BB681A40BB689A420CBF0123002322
:10369800DBB21A46FB799A42C3D00023184610378A
:1036A800BD4680BDF0B585B000AF78600023FB60F3
:1036B8007B681B681B69FB60FB6823F44053FB6055
:1036C8007B68DB68FA681343FB607B681B68FA68F1
:1036D8001A617B681B68DB68FB60FB6823F4164390
:1036E80023F00C03FB607B689A687B681B691A43AC
:1036F8007B685B691A437B68DB691343FA68134389
:10370800FB607B681B68FA68DA607B681B685B692A
:10371800FB60FB6823F44073FB607B689B69FA6875
:103728001343FB607B681B68FA685A617B68DB6936
:10373800B3F5004F40F0E4807B681B68AB4A9342C6
:1037480004D07B681B68AA4A93426CD17B681C68CA
:10375800FEF722FB024613469B0013449A001A44C4
:103768007B685B685B00B2FBF3F3A24AA2FB03230E
:103778005B091D01FEF710FB024613469B0013442C
:103788009A001A447B685B685B00B2FBF3F6FEF7AD
:1037980003FB024613469B0013449A001A447B68B5
:1037A8005B685B00B2FBF3F3924AA2FB03235B095D
:1037B800642202FB03F3F31ADB0032338D4AA2FBC7
:1037C80003235B0903F0F8035B001D44FEF7E4FAEA
:1037D800024613469B0013449A001A447B685B68B0
:1037E8005B00B2FBF3F6FEF7D7FA024613469B00DE
:1037F80013449A001A447B685B685B00B2FBF3F3DE
:103808007C4AA2FB03235B09642202FB03F3F31A3D
:10381800DB003233774AA2FB03235B0903F007037B
:103828002B44A36054E17B681C68FEF7A1FA0246AA
:1038380013469B0013449A001A447B685B685B003C
:10384800B2FBF3F36B4AA2FB03235B091D01FEF7EE
:103858008FFA024613469B0013449A001A447B6869
:103868005B685B00B2FBF3F6FEF782FA024613468A
:103878009B0013449A001A447B685B685B00B2FBA8
:10388800F3F35C4AA2FB03235B09642202FB03F304
:10389800F31ADB003233574AA2FB03235B0903F018
:1038A800F8035B001D44FEF763FA024613469B00CB
:1038B80013449A001A447B685B685B00B2FBF3F61A
:1038C800FEF756FA024613469B0013449A001A4420
:1038D8007B685B685B00B2FBF3F3464AA2FB0323F9
:1038E8005B09642202FB03F3F31ADB003233414A1B
:1038F800A2FB03235B0903F007032B44A360E7E063
:103908007B681B68394A934204D07B681B68384A35
:10391800934271D17B681C68FEF73EFA0246134653
:103928009B0013449A001A447B685B689B00B2FBB7
:10393800F3F3304AA2FB03235B091D01FEF72CFABF
:10394800024613469B0013449A001A447B685B683E
:103958009B00B2FBF3F6FEF71FFA024613469B00E4
:1039680013449A001A447B685B689B00B2FBF3F32C
:10397800204AA2FB03235B09642202FB03F3F31A28
:103988001B0132331B4AA2FB03235B0903F0F0033C
:103998001D44FEF701FA024613469B0013449A00A1
:1039A8001A447B685B689B00B2FBF3F6FEF7F4F9F8
:1039B800024613469B0013449A001A447B685B68CE
:1039C8009B00B2FBF3F30B4AA2FB03235B096422BF
:1039D80002FB03F3F31A1B013233064AA2FB03234B
:1039E8005B0903F00F032B44A36071E00010014052
:1039F800001401401F85EB517B681C68FEF7B8F97D
:103A0800024613469B0013449A001A447B685B687D
:103A18009B00B2FBF3F3304AA2FB03235B091D01B1
:103A2800FEF7A6F9024613469B0013449A001A446F
:103A38007B685B689B00B2FBF3F6FEF799F90246D8
:103A480013469B0013449A001A447B685B689B00EA
:103A5800B2FBF3F3204AA2FB03235B09642202FBB7
:103A680003F3F31A1B0132331B4AA2FB03235B093E
:103A780003F0F0031D44FEF77BF9024613469B0052
:103A880013449A001A447B685B689B00B2FBF3F608
:103A9800FEF76EF9024613469B0013449A001A4437
:103AA8007B685B689B00B2FBF3F30B4AA2FB032322
:103AB8005B09642202FB03F3F31A1B013233064A43
:103AC800A2FB03235B0903F00F032B44A360FFE76A
:103AD80000BF1437BD46F0BD1F85EB5180B584B0DB
:103AE80000AF03463960FB711346BB71FB79FB736A
:103AF800002208210C48FDF7EBFC07F10F010A230F
:103B080001220A48FEF7C0F9BB799AB20A2339683C
:103B18000648FEF7B9F9012208210348FDF7D8FC49
:103B280000BF1037BD4680BD0010024018020020BB
:103B380080B584B000AF03463960FB711346BB7192
:103B4800FB7963F07F03DBB23B720022082118483F
:103B5800FDF7BEFC07F108010A2301221548FEF70C
:103B680093F9BB799AB207F108010A231148FEF7C5
:103B7800BDFA012208210E48FDF7AAFC0023FB73B9
:103B88000CE0FB7B3A681344FA7B07F110010A4406
:103B980012F8082C1A70FB7B0133FB73FA7BBB7994
:103BA80003F003039A42ECDB00BF1037BD4680BD2B
:103BB800001002401802002080B584B000AF786081
:103BC80039600023FB73582279685B4801F0A6F836
:103BD8003B68DB785BB203F007035AB2FB7B5BB24E
:103BE80013435BB2DBB2FB733B681B785BB223F019
:103BF8000F035AB2FB7B5BB213435BB2DBB2FB73BE
:103C080007F10F03012219462020FFF767FF002361
:103C1800FB733B689B785BB223F03F035AB2FB7B94
:103C28005BB213435BB2DBB2FB733B685B785BB29E
:103C380003F038035AB2FB7B5BB213435BB2DBB2CF
:103C4800FB7307F10F03012219462420FFF746FFF3
:103C58003B681B79002B08D08823FB7307F10F03FF
:103C6800012219462320FFF739FF3B685B78202B98
:103C780058D801A252F823F0053D00082D3D000850
:103C88002D3D00082D3D00082D3D00082D3D000864
:103C98002D3D00082D3D00080D3D00082D3D000874
:103CA8002D3D00082D3D00082D3D00082D3D000844
:103CB8002D3D00082D3D0008153D00082D3D00084C
:103CC8002D3D00082D3D00082D3D00082D3D000824
:103CD8002D3D00082D3D00081D3D00082D3D000824
:103CE8002D3D00082D3D00082D3D00082D3D000804
:103CF8002D3D00082D3D0008253D00080F4B104ABA
:103D08001A600FE00D4B0F4A1A600BE00B4B0E4A7E
:103D18001A6007E0094B0D4A1A6003E0074B0C4A8A
:103D28001A6000BF012208210A48FDF7D1FB00BF35
:103D38001037BD4680BD00BF1802002008000020D3
:103D48008FC2753D8FC2F53DEC51383E8FC2753E2E
:103D580048E13A3F0010024080B586B000AF786075
:103D680007F11403022219462820FFF7E1FE7B7DA4
:103D78009BB21B029AB23B7D9BB213449BB21BB20F
:103D8800BB8107F11403022219462A20FFF7D0FE4F
:103D98007B7D9BB21B029AB23B7D9BB213449BB2C4
:103DA8001BB2FB8107F11403022219462C20FFF7EE
:103DB800BFFE7B7D9BB21B029AB23B7D9BB2134434
:103DC8009BB21BB23B827B681A4607F10C0318684A
:103DD80010609B88938078681837BD4680BD00BF07
:103DE80080B58CB000AF07F11C031846FFF7B4FF8D
:103DF800B7F91C3007EE903AB8EEE77A314BD3EDBD
:103E0800007A27EE277A304BD3ED007A67EE277ACF
:103E18009FED2E7A37EE877A2D4BD3ED007A77EE29
:103E2800677AC7ED047AB7F91E3007EE903AB8EE14
:103E3800E77A244BD3ED007A27EE277A254BD3ED8A
:103E4800007A67EE277A9FED217A37EE877A224B40
:103E5800D3ED007A77EE677AC7ED057AB7F92030A7
:103E680007EE903AB8EEE77A164BD3ED007A27EED4
:103E7800277A1A4BD3ED007A67EE277A9FED137AEB
:103E880037EE877A164BD3ED007A77EE677AC7ED6F
:103E9800067A07F1240307F1100207CA83E807002E
:103EA800796ABA6AFB6A06EE901A07EE102A07EEDC
:103EB800903AB0EE660AF0EE470AB0EE671A30376D
:103EC800BD4680BD080000200C0000200000000056
:103ED800700200201000002074020020140000204E
:103EE8007802002080B584B000AF7860FDF700F854
:103EF800F86007F10B03012219462720FFF718FE87
:103F0800FB7A03F00703002B0DD1FB7A03F00703BC
:103F1800002B09D1FCF7ECFF0246FB68D21A7B683C
:103F28009A42E6D300E000BFFB7A03F00703002BB8
:103F380001D0012300E0002318461037BD4680BD9C
:103F480080B500AF0620FDF703F9024B01221A6085
:103F580000BF80BD7C02002090B585B000AF00F0A6
:103F6800A3FA00F0D9FBFCF75DFF00F057FA00F068
:103F78006DFA00F065FC00F001FB00F035FB3649F6
:103F88003648FFF719FE00213548FEF7C9FC042121
:103F98003348FEF7C5FC08213148FEF7C1FC0C2167
:103FA8002F48FEF7BDFC00F023FC0023FB60FB68F4
:103FB8000133FB604FF47A70FFF794FF0346002B40
:103FC800F5D0FFF70DFFF0EE406AB0EE607AF0EE44
:103FD800417AC7ED006A87ED017AC7ED027AD7ED1D
:103FE800006A97ED017AD7ED027AB0EE660AF0EE34
:103FF800470AB0EE671A00F0A7F900F03BF800F0A6
:104008009DF8FA68174B82FB03341319D910D3179C
:10401800C91A0B461B015B1AD11A002903D100F0FB
:10402800F3F80023FB6000F04DF90F4BB3F90020C3
:104038000E4B1A800C4BB3F902200C4B5A800A4BDA
:10404800B3F90420094B9A800A2308220749084833
:10405800FFF746FAABE700BFA803002010030020D3
:10406800A40200208988888800030020E402002038
:104078006803002080B582B000AF2C4BB3F9003044
:104088005B4207EE903AB8EEE77A294BD3ED017A16
:1040980067EE277AFDEEE77AC7ED017ABB8818B29A
:1040A800234BB3F900309AB2224B9B1A9BB219B238
:1040B8001F4BB3F900309BB2C3F57A739BB21BB2A6
:1040C8001A4600F085FD03461A461B4B1A80174B0B
:1040D800B3F902305B4207EE903AB8EEE77A144B38
:1040E800D3ED017A67EE277AFDEEE77AC7ED017A1C
:1040F800BB8818B20E4BB3F902309AB20D4B9B1A1B
:104108009BB219B20A4BB3F902309BB2C3F57A736A
:104118009BB21BB21A4600F05BFD03461A46064BDB
:10412800DA8000BF0837BD4680BD00BFFC02002012
:104138009402002018FCFFFF0003002080B582B025
:1041480000AF2C4BB3F9003007EE903AB8EEE77A9F
:10415800294BB3F9003007EE903AF8EEE76A274B9F
:10416800D3ED027A66EEA77A77EE677AFDEEE77A04
:10417800C7ED017ABB881BB24FF47A722049184602
:1041880000F026FD03461A461A4B1A80194BB3F95C
:10419800023007EE903AB8EEE77A174BB3F90230DF
:1041A80007EE903AF8EEE76A144BD3ED027A66EE22
:1041B800A77A77EE677AFDEEE77AC7ED017ABB88D2
:1041C8001BB24FF47A720E49184600F001FD0346FF
:1041D8001A46084B5A80074BB3F90020094B5A80FE
:1041E800044BB3F90220074B1A8100BF0837BD46BC
:1041F80080BD00BFEC020020FC02002094020020D9
:1042080018FCFFFF0003002080B582B000AF284BE8
:10421800B3F900301A46274BB3F90030D31A07EE2A
:10422800903AB8EEE77A244BD3ED037A67EE277A13
:10423800FDEEE77AC7ED017ABB881BB24FF47A72BC
:104248001E49184600F0C4FC03461A461C4B9A80C7
:10425800174BB3F902301A46164BB3F90230D31A8A
:1042680007EE903AB8EEE77A134BD3ED037A67EE90
:10427800277AFDEEE77AC7ED017ABB881BB24FF4C7
:104288007A720E49184600F0A3FC03461A460C4BF6
:104298005A81084BB3F90020054B1A80054BB3F936
:1042A8000220034B5A8000BF0837BD4680BD00BFBF
:1042B8000C030020FC0200209402002018FCFFFFE1
:1042C8000003002090B583B002AF1A4BB3F9063053
:1042D8009AB2184BB3F908309BB213449AB2154BF3
:1042E800B3F90A309BB213449BB218B2124BB3F91C
:1042F80002309AB2114B9B1A9BB219B20E4BB3F90A
:1043080002309BB2C3F53B6308339BB21AB20C4B25
:104318001B681CB20B4B1B681BB20093234600F0B2
:104328007BFC0346184600F0E7FA00BF0437BD4699
:1043380090BD00BF000300209402002048F4FFFF56
:10434800180000201C00002080B584B000AFF0EEFB
:10435800406AB0EE607AF0EE417AC7ED016A87ED07
:10436800027AC7ED037A97ED017A294BB3F9003049
:1043780007EE903AF8EEE77A77EE677AFDEEE77A9D
:10438800C7ED007A3B8818B2214BB3F900309AB2D6
:10439800204B9B1A9BB219B21D4BB3F900309BB24C
:1043A800C3F57A739BB21BB21A4600F011FC0346A0
:1043B8001A46194B1A8097ED027A154BB3F9023059
:1043C80007EE903AF8EEE77A77EE677AFDEEE77A4D
:1043D800C7ED007A3B8818B20D4BB3F902309AB298
:1043E8000C4B9B1A9BB219B2094BB3F902309BB222
:1043F800C3F57A739BB21BB21A4600F0E9FB034679
:104408001A46054B5A8000BF1037BD4680BD00BF15
:104418009402002018FCFFFFFC02002080B400AFCB
:10442800094B70221A70084B08225A70064BC0229A
:104438009A70054B0722DA70034B00221A7100BFED
:10444800BD465DF8047B7047A803002080B400AF28
:10445800104B00221A800F4B00225A800D4B4FF050
:1044680080425A600B4B0C4A9A600A4B0B4ADA603E
:104478000B4B00221A800A4B00225A80094B00225B
:104488001A80084B00225A8000BFBD465DF8047BA5
:10449800704700BF940200200AD7A33C0000E04008
:1044A800EC0200200C03002080B594B000AF07F1A7
:1044B800200330220021184600F03BFC07F10C03D2
:1044C80000221A605A609A60DA601A610023BB60A1
:1044D800284A284B1B6C43F080531364254B1B6CF4
:1044E80003F08053BB60BB6800237B60224A224BE9
:1044F8001B6843F4804313601F4B1B6803F480431D
:104508007B607B6802233B620123FB6210233B63D1
:104518000223BB630023FB6308233B6432237B64D1
:104528000423BB640723FB6407F120031846FCF748
:10453800E9FF0346002B01D000F0FEF90F23FB60D2
:1045480002233B6100237B614FF4A053BB614FF40E
:104558008053FB6107F10C0300211846FDF740FA70
:104568000346002B01D000F0E7F900BF5037BD46E5
:1045780080BD00BF003802400070004080B500AF29
:10458800174B184A1A60164B4FF482725A60144B34
:1045980000229A60124B0022DA60114B00221A6145
:1045A8000F4B00225A610E4B4FF400729A610C4B6C
:1045B8001022DA610A4B00221A62094B00225A6261
:1045C800074B00229A62064B0A22DA620448FDF77A
:1045D800F7FB0346002B01D000F0AEF900BF80BD09
:1045E800100300200030014080B58EB000AF07F105
:1045F800280300221A605A609A60DA6007F12003E3
:1046080000221A605A603B1D00221A605A609A60A4
:10461800DA601A615A619A613D4B3E4A1A603C4B16
:1046280043225A603A4B00229A60394B40F6426264
:10463800DA60374B00221A61354B00229A61344800
:10464800FEF70CF90346002B01D000F075F94FF482
:104658008053BB6207F1280319462D48FEF764FA18
:104668000346002B01D000F067F92948FEF722F92C
:104678000346002B01D000F05FF900233B620023C2
:104688007B6207F1200319462148FEF717FE03460F
:10469800002B01D000F050F960237B600023BB6041
:1046A8000023FB6000237B613B1D0022194618484C
:1046B800FEF774F90346002B01D000F03DF93B1DCD
:1046C800042219461248FEF769F90346002B01D067
:1046D80000F032F93B1D082219460D48FEF75EF935
:1046E8000346002B01D000F027F93B1D0C22194688
:1046F8000748FEF753F90346002B01D000F01CF9D8
:10470800034800F0B3F900BF3837BD4680BD00BF8D
:10471800A40200200008004080B588B000AF07F16F
:104728000C0300221A605A609A60DA601A6100234A
:10473800BB602B4A2A4B1B6B43F010031363284BB7
:104748001B6B03F01003BB60BB6800237B60244A2B
:10475800234B1B6B43F001031363214B1B6B03F0CB
:1047680001037B607B6800233B601D4A1C4B1B6B6D
:1047780043F0080313631A4B1B6B03F008033B60F9
:104788003B68002208211748FCF7A2FE0823FB60BB
:1047980001233B6100237B610023BB6107F10C030C
:1047A80019461048FCF7E2FC0123FB600E4B3B6105
:1047B80000237B6107F10C0319460A48FCF7D6FC75
:1047C8000123FB6000233B6100237B6107F10C039D
:1047D80019460648FCF7CAFC00BF2037BD4680BD15
:1047E8000038024000100240000011100000024092
:1047F80080B500AF104B1B68184600F05DF80E4BF3
:104808001B68184600F068F80B4B1B68184600F048
:1048180073F8094B1B68184600F07EF802E0322056
:10482800FCF772FB01210548FCF73AFE0346002B12
:10483800F5D000BF80BD00BF180000200000024076
:1048480080B582B000AF00237B60184A174B1B6B02
:1048580043F001031363154B1B6B03F001037B60EB
:104868007B68134B134A1A60114B4FF4E1325A60BC
:104878000F4B00229A600E4B0022DA600C4B00228C
:104888001A610B4B0C225A61094B00229A61084BA2
:104898000022DA610648FEF78DFD0346002B01D0A1
:1048A80000F04AF800BF0837BD4680BD0038024016
:1048B800680300200044004080B483B000AF7860F3
:1048C800044B1B687A689A6300BF0C37BD465DF8D5
:1048D800047B7047A402002080B483B000AF7860E6
:1048E800044B1B687A685A6300BF0C37BD465DF8F5
:1048F800047B7047A402002080B483B000AF7860C6
:10490800044B1B687A681A6400BF0C37BD465DF813
:10491800047B7047A402002080B483B000AF7860A5
:10492800044B1B687A68DA6300BF0C37BD465DF834
:10493800047B7047A402002080B400AF00BFBD46CE
:104948005DF8047B704700BF80B582B000AF0023DC
:104958007B60104A0F4B5B6C43F4804353640D4BF0
:104968005B6C03F480437B607B6800233B60094AEF
:10497800084B1B6C43F080531364064B1B6C03F00D
:1049880080533B603B680720FCF7AEFB00BF08374D
:10499800BD4680BD0038024080B58AB000AF78605F
:1049A80007F1140300221A605A609A60DA601A61EB
:1049B8007B681B68194A93422BD100233B61184A34
:1049C800174B5B6C43F480535364154B5B6C03F4D7
:1049D80080533B613B690023FB60114A104B1B6B02
:1049E80043F0010313630E4B1B6B03F00103FB60E1
:1049F800FB68E0237B610223BB610023FB61032387
:104A08003B6205237B6207F1140319460548FCF74E
:104A1800ADFB00BF2837BD4680BD00BF0030014058
:104A2800003802400000024080B485B000AF7860D2
:104A38007B681B680B4A93420DD10023FB600A4A2E
:104A4800094B1B6C43F004031364074B1B6C03F006
:104A58000403FB60FB6800BF1437BD465DF8047BA8
:104A6800704700BF000800400038024080B588B099
:104A780000AF786007F10C0300221A605A609A6050
:104A8800DA601A617B681B68124A93421ED10023C0
:104A9800BB60114A104B1B6B43F0080313630E4BAA
:104AA8001B6B03F00803BB60BB684FF47043FB60EB
:104AB80002233B6100237B610023BB610223FB616E
:104AC80007F10C0319460548FCF750FB00BF2037D7
:104AD800BD4680BD0008004000380240000C02407E
:104AE80080B400AF00BFBD465DF8047B704700BFCF
:104AF80080B400AFFEE700BF80B400AFFEE700BFA0
:104B080080B400AFFEE700BF80B400AFFEE700BF8F
:104B180080B400AF00BFBD465DF8047B704700BF9E
:104B280080B400AF00BFBD465DF8047B704700BF8E
:104B380080B400AF00BFBD465DF8047B704700BF7E
:104B480080B500AFFCF7C0F900BF80BD80B584B068
:104B580000AF7860114B1B68002B02D10F4B104A35
:104B68001A600E4B1B68FB600C4B1A687B68134479
:104B78006A46934207D900F0A5F802460C23136051
:104B88004FF0FF3306E0054B1A687B681344034A6D
:104B98001360FB6818461037BD4680BD84020020AC
:104BA800B803002080B400AF084A084BD3F8883017
:104BB80043F47003C2F88830044B4FF000629A60E7
:104BC80000BFBD465DF8047B704700BF00ED00E004
:104BD80080B483B000AF0346FB800B46BB8013460E
:104BE8007B80B7F90620B7F904309A4202DAB7F9A0
:104BF80004300AE0B7F90620B7F902309A4202DD1C
:104C0800B7F9023001E0B7F9063018460C37BD464F
:104C18005DF8047B704700BF90B482B000AF0446D3
:104C2800084611461A462346FB800346BB800B46BE
:104C38007B8013463B80B7F90620B7F90430D31AB6
:104C4800B7F91010B7F900208A1A02FB03F2B7F976
:104C58000210B7F90430CB1A92FBF3F39AB23B88EF
:104C680013449BB21BB218460837BD4690BC704728
:104C7800DFF834D0002103E00C4B5B58435004317B
:104C88000B480C4B42189A42F6D30B4A02E0002319
:104C980042F8043B094B9A42F9D3FFF783FF00F02F
:104CA80017F8FFF759F9704700000220C06900089B
:104CB80000000020FC010020FC010020B4030020BB
:104CC800FEE70000014B1868704700BF8C00002009
:104CD80070B50E4B0E4CE41AA41000251E46A542D2
:104CE80004D056F8253098470135F8E701F02EFD35
:104CF800084C094BE41AA41000251E46A54204D00E
:104D080056F8253098470135F8E770BDB8690008AE
:104D1800B8690008BC690008B869000810B5431EE6
:104D28000A44914204D011F8014B03F8014FF8E707
:104D380010BD02440346934202D003F8011BFAE770
:104D480070472DE9FF4755EC104B0D9FDDF830A05B
:104D5800002D0E4691461946B8BF22462B4627F02D
:104D68002007BBBF05F100431D4600232D23B8BF14
:104D78001446462F0B7003D0452F03D1013601E0AE
:104D8800032100E0022103AB019302AB00933246FA
:104D9800534645EC104B00F0AFFB472F804602D13D
:104DA80019F0010F28D0462F08EB060911D198F801
:104DB8000030302B0AD10022002320462946FBF779
:104DC800C1FF18B9C6F10106CAF80060DAF8003068
:104DD80099440022002320462946FBF7B3FF08B96F
:104DE800302202E0CDF80C9006E0039B994503D9E8
:104DF800591C03911A70F8E7039B0E9AC8EB03033A
:104E08004046136004B0BDE8F08773B50346002937
:104E1800B8BF494203F8022BB4BF2D222B2209291F
:104E2800427019DD0DF1070216460A2591FBF5F4CB
:104E380005FB14113031092C02F8011D2146F5DC5F
:104E48003031541E02F8011CB4421A460AD214F832
:104E5800012B03F8012BF7E730241A46214402F806
:104E6800024B5970101A02B070BD00002DE9F04FC6
:104E78008DB00C46DDF8588016461F46054601F0F1
:104E8800DBF8036804931846FBF734FB00230A9306
:104E9800D8F800300590073323F0070303F1080220
:104EA80094F818A0D4F800B0C8F80020D3E900237B
:104EB800C4E91223D4E9128929F000430793CDF8F5
:104EC80018804FF0FF32A64BDDE90601FBF76CFFB7
:104ED800A0B94FF0FF32A24BDDE90601FBF746FF10
:104EE80060B90022002340464946FBF735FF10B160
:104EF8002D2384F843309B4B9B4A0AE042464B469D
:104F080040464946FBF750FF002800F09081974B38
:104F1800974ABAF1470F8CBF9046984603232BF067
:104F28000402236122604FF000093BE0BAF1670FE9
:104F380000F08581BAF1470F00F0818100230393C7
:104F48000AAB029309AB009349EC108B0DF12303D4
:104F58002260CDF804A061682846FFF7F2FE0AF047
:104F6800DF03472B804600F07F81BAF1650F09996E
:104F780000F288810139524604F150000991FFF787
:104F880044FF0A9A8318012A8146236100F3778136
:104F98002268D10700F173819DF8233013B12D23C6
:104FA80084F84330009733460BAA2146284600F080
:104FB8009BF9013002D14FF0FF3091E123685A0587
:104FC80001D4236965E0BAF1650F40F2D58000226B
:104FD8000023D4E91201FBF7B5FE78B30123654A33
:104FE80031462846B8470130E5D00A9B099A9A42CB
:104FF8000BDB2368D80708D423689B0740F111818D
:105008004FF0000804F1190906E1059B049A31469E
:105018002846B8470130CED04FF0000804F11A09ED
:105028000A9B013B9845E7DA01234A463146284660
:10503800B8470130BFD008F10108F1E7099B002B00
:1050480029DC01234B4A31462846B8470130B2D003
:10505800099B23B90A9B13B92368D907CCD5059BAB
:10506800049A31462846B8470130A4D04FF00009C9
:1050780004F11A0A099B5B42994509DA0123524651
:1050880031462846B847013095D009F10109F1E7C2
:105098000A9B4246A7E00A9AA36D9A42A8BF1A46FD
:1050A800002A914606DC4FF0000A29EAE97904F162
:1050B8001A0B11E01346314642462846B8470130DC
:1050C800F1D178E701235A4631462846B8470130DE
:1050D8003FF471AF0AF1010AA36DC9EB03029245CF
:1050E800F0DB08EB0309099A0A9B9A420FDB236855
:1050F800DA070CD40A9B099A9844C9EB08089B1A4A
:105108009845A8BF9846B8F1000F08DC0FE0059B4A
:10511800049A31462846B8470130EBD14BE743465D
:105128004A4631462846B84701303FF444AF4FF06D
:10513800000928EAE87804F11A0A09E0012352462E
:1051480031462846B84701303FF435AF09F1010927
:10515800099A0A9B9B1AC8EB03039945EEDB4BE7B8
:10516800FFFFEF7F886700088C67000890670008DA
:1051780094670008986700080A9A012A01DCDB078F
:1051880038D50123424631462846B84701303FF416
:1051980012AF059B049A31462846B84701303FF4C0
:1051A8000AAF00220023D4E91201FBF7CBFD20B19E
:1051B8004FF0000804F11A0A0EE00A9B08F10102F8
:1051C800013B19E00123524631462846B8470130D1
:1051D8003FF4F1AE08F101080A9B013B9845F1DB69
:1051E8004B4604F1500231462846B84701307FF457
:1051F80003AFE0E60123424631462846B84701306E
:10520800EED1D8E601234A4631462846B847013050
:105218003FF4D1AE08F10108E3680B9A9B1A984550
:10522800F0DBE0680B9B9842B8BF184658E061680D
:105238004B1C4BF480627FF479AE062301E011B970
:10524800012363607AE6002303930AAB029309AB58
:10525800009349EC108B2260CDF804A00DF12303D4
:105268002846FFF76EFD8046099BD81C02DB626862
:1052780093421DDDAAF1020A5FFA8AFA75E6013344
:10528800236189E6BAF1660F14D10029636807DD46
:10529800216113B92268D2071DD501330B4419E0E7
:1052A80013B92268D00701D5023313E0012311E0B6
:1052B8004FF0670A099B0A9A934205DB226823612B
:1052C800D10708D5013305E0002BD4BFC3F1020391
:1052D800012313442361099BA3654FF000095BE692
:1052E8000DB0BDE8F08F00BF2DE9F04791461F468D
:1052F8000A698B68DDF820809342B8BF1346C9F865
:10530800003091F8432006460C4612B10133C9F823
:1053180000302368990642BFD9F800300233C9F833
:105328000030256815F0060510D104F1190A07E0C8
:105338000123524639463046C04701301AD001355C
:10534800E368D9F800209B1A9D42F1DB94F84330BA
:105358002268003318BF012392060FD5E1185A1CA2
:10536800302081F84300224494F8451082F8431015
:10537800023303E04FF0FF30BDE8F08704F1430249
:1053880039463046C0470130F4D02268D9F8005079
:10539800E36802F00602042A08BF5D1B2269A368BD
:1053A8000CBF25EAE57500259342C4BF9B1AED188A
:1053B8004FF000091A344D4509D0012322463946D9
:1053C8003046C0470130D5D009F10109F3E7002084
:1053D800BDE8F0872DE9F74F03690C699C428046C8
:1053E80000F38380013C01F114074FEA840E00F1B9
:1053F800140657F8245006EB0E030193013556F8AE
:105408002430B3FBF5F507EB0E09002D39D04FF02A
:10541800000A3846B446D34650F8042B93B205FB2D
:1054280003A34FEA134A9BB2C3EB0B03120CBCF85D
:1054380000B005FB02A213FA8BF34FEA124A1FFAD7
:1054480082FBDCF80020CBEB124202EB23429BB23A
:1054580043EA024381454FEA224B4CF8043BDBD236
:1054680056F80E306BB9019B043B9E421A4602D394
:10547800C8F8104005E01268043B002AF8D1013C46
:10548800F3E7404600F0FBFF00282CDB01353046EF
:105498004FF0000E57F8041BD0F800C08AB2C2EBD8
:1054A8000E03090C13FA8CF3C1EB1C4202EB2342E6
:1054B8009BB243EA0243B9454FEA224E40F8043B07
:1054C800E8D256F8242006EB840362B9043B9E42D6
:1054D8001A4602D3C8F8104005E01268043B002AB7
:1054E800F8D1013CF3E7284600E0002003B0BDE80E
:1054F800F08F0000000000002DE9F04F59EC108BF0
:1055080097B0456A0691824609921093209CCDE98E
:10551800008945B9102000F09DFDCAF824004560B7
:1055280085600560C560DAF82430196859B15A6891
:105538004A60012393408B60504600F0C8FDDAF8BA
:10554800243000221A60019B9F4A002BBFBF012311
:105558002360019B23F00043B8BF0193019FA4BFC0
:105568000023236027F000431B0D1B0593421DD128
:10557800109A42F20F731360009B43B9934A944BFD
:10558800C7F31300002814BF1846104600E09048DF
:10559800219B002B00F04A85C37813B100F1080362
:1055A80000E0C31C219A136000F040BDDDE900450E
:1055B8000022002320462946FBF7C4FB804658B149
:1055C800109A01231360219B002B00F0228581484B
:1055D8001860013800F02ABD14AA15A945EC104B33
:1055E800504600F0C7FFC7F30A5602905EB1C5F3F4
:1055F800130343F07F51204641F44011A6F2FF36D1
:10560800CDF844801DE0159B149E1E4406F23243DB
:10561800202B0ADD009A06F21240C3F1400322FA59
:1056280000F007FA03F3184304E0C3F12000009BDD
:1056380003FA00F0FBF7A8F80123A1F1F871013E85
:1056480011930022644BFAF761FF59A3D3E90023B1
:10565800FBF710F958A3D3E90023FAF759FF0446DA
:1056680030460D46FBF7A0F855A3D3E90023FBF716
:1056780001F902460B4620462946FAF749FF044637
:105688000D46FBF7A7FB0022834600232046294648
:10569800FBF762FB58B15846FBF786F802460B4603
:1056A80020462946FBF74EFB08B90BF1FF3BBBF13F
:1056B800160F0DD8494901EBCB01DDE90023D1E9EB
:1056C8000001FBF767FB30B10BF1FF3B002300E063
:1056D80001230D9300E00D90149B9E1B731E0593F0
:1056E80043BFC3F10009002305934FF00009BBF144
:1056F800000F07DB059BCDF830B05B440593002312
:10570800079306E0CBF1000307930023CBEB0909CD
:105718000C93069B092B27D8052BC4BF043B069383
:10572800069BA3F10203CCBF00250125032B20D83B
:10573800DFE803F0060E0204012302E0012308E07B
:1057480000230893099B002B1CDD039398461EE059
:1057580000230893099B5B4403F101080393434624
:10576800012BB8BF012312E00125002306930895F9
:1057780001E0012308934FF0FF330393984600227A
:10578800122303E00123039398461A460992DAF894
:10579800244000226260042101F114029A421FD8B9
:1057A8006268013262604900F6E700BFAFF300802B
:1057B80061436F63A787D23FB3C8608B288AC63F0F
:1057C800FB799F501344D33F0000F07F9A6700088D
:1057D800A3670008996700080000F83FA867000859
:1057E8006168504600F03EFCDAF8243020601B68FF
:1057F8000493B8F10E0F00F25D81002D00F05A817C
:105808009DED007BBBF1000F8DED0E7B31DDA04AD5
:105818000BF00F0302EBC30393ED007B4FEA2B144D
:10582800E2068DED0A7B0CD59A4BDDE90E01D3E932
:105838000823FBF749F904F00F04CDE9000103261A
:1058480000E00226934D6CB1E30708D5DDE90A01B3
:10585800D5E90023FBF70EF8CDE90A0101366410FB
:105868000835F0E7DDE90A23DDE90001FBF72CF94B
:1058780020E0CBF1000404B3854B864D04F00F0201
:1058880003EBC203D3E90023DDE90E01FAF7F2FFC7
:10589800CDE9000124110023022654B1E70705D5FC
:1058A800D5E90023FAF7E6FF01360123641008352D
:1058B800F3E71BB1CDE9000100E002260D9BEBB137
:1058C800DDE900450022744B20462946FBF744FADF
:1058D800A0B1B8F1000F11D0039B002B40F3E68074
:1058E8000BF1FF330A9300226C4B20462946FAF746
:1058F800C1FF0136CDE90001039F02E0CDF828B0D1
:1059080047463046FAF750FFDDE90023FAF7B2FFC1
:105918000022634BFAF7FCFD0446A1F15075CFB99C
:105928000022604BDDE90001FAF7F0FD22462B4624
:10593800CDE90001FBF72EFA002840F0418222460B
:1059480005F10043DDE90001FBF706FA002840F005
:105958002E82ABE0089A4E4B791E002A4AD003EB00
:10596800C103D3E9002300204F49FBF7ADF82246D5
:105978002B46FAF7CBFD049C05460E46DDE90001EF
:10598800FBF728FA1290FAF70FFF02460B46DDE9FB
:105998000001FAF7BBFD129B303304F8013B2A469D
:1059A8003346CDE90001FBF7D7F9002840F0218301
:1059B800DDE9002300203849FAF7A8FD2A463346D6
:1059C800FBF7CAF9002840F0D280049BE31ABB42D7
:1059D8006CDA0022314B28463146FAF74BFF002299
:1059E80005460E462D4BDDE90001FAF743FFCDE9E8
:1059F8000001C3E703EBC10122462B46D1E90001B0
:105A0800FAF738FF049BCDE91201DC191D46DDE9E0
:105A18000001FBF7DFF90646FAF7C6FE3036024604
:105A28000B46DDE90001FAF771FD05F8016BAC42A0
:105A3800CDE900014FF0000223D11B4BDDE9120133
:105A4800FAF766FD02460B46DDE90001FBF7A2F90D
:105A5800002840F08C80DDE9122300201249FAF773
:105A680055FD02460B46DDE90001FBF775F9E8B183
:105A780014F8013C302B04F1FF3240F0BA8214468E
:105A8800F6E7064BFAF7F6FECDE90001BFE700BFDF
:105A9800A8670008706800080000F03F0000244074
:105AA80000001C40000014400000E03FDDE90E3417
:105AB800CDE90034159B002B7CDBBBF10E0F79DCA4
:105AC8008F4B03EBCB03D3E90067099B002B14DA58
